:100000000C9434000C9468010C9446000C94460047
:100010000C9446000C9485010C9446000C94460008
:100020000C9446000C9446000C9446000C94460038
:100030000C9446000C9446000C9446000C94460028
:100040000C9446000C9446000C9446000C94460018
:100050000C9446000C9446000C9446000C94460008
:100060000C9446000C94460011241FBECFEFD8E03C
:10007000DEBFCDBF21E0A0E0B1E001C01D92A43100
:10008000B207E1F70E9493000C946D060C940000F7
:10009000ECE7F0E080818064808380818F778083CB
:1000A00080818F7D8083EAE7F0E0808187608083B4
:1000B0008081806880830895ECE7F0E09081907FF4
:1000C000892B8083EAE7F0E08081806480838091DF
:1000D0007A0086FDFCCF8091780090917900089598
:1000E000E9E6F0E08081836080838AB18B7F8AB902
:1000F0008BB184608BB98DB381608DBB08958AB15B
:10010000877F8AB98AB18F7E8AB98BB188618BB9B2
:10011000EDE6F0E0808188618083E8E6F0E08081B0
:100120008460808308958FEF8AB9EEE7F0E08081E4
:100130008F60808384B1886184B985B1877F85B9F8
:1001400085B18F7E85B910920301109202010E9441
:1001500048000E94FD020E9419030E9470000E9444
:100160007F00789480910201909103018230910583
:1001700009F47AC034F4009761F0019709F470C073
:10018000A0C08330910509F476C0049709F47AC0C1
:1001900098C085B1877F85B985B18F7E85B980E0AC
:1001A0000E945C00BC0180E090E00E945C056093CE
:1001B00010017093110180931201909313010E941A
:1001C00088038FE39CE90197F1F700C0000081E00C
:1001D0000E945C00BC0180E090E00E945C0560939E
:1001E0000C0170930D0180930E0190930F010E94FA
:1001F000BB038FE39CE90197F1F700C0000082E0A8
:100200000E945C00BC0180E090E00E945C0560936D
:1002100008017093090180930A0190930B010E94D9
:10022000EE038FE39CE90197F1F700C0000083E043
:100230000E945C00BC0180E090E00E945C0560933D
:1002400004017093050180930601909307010E94B9
:100250001E048FE39CE90197F1F700C0000082CFF4
:1002600085B1886085B97ECF85B1806185B985B15A
:10027000877F85B977CF85B1886085B985B1806181
:1002800085B970CF85B1806185B985B1886085B940
:100290009FEF29E688E1915020408040E1F700C0BF
:1002A000000085B18F7E85B985B1877F85B99FEFC5
:1002B00029E688E1915020408040E1F700C000002D
:1002C00051CF85B1877F85B985B18F7E85B94ACFFA
:1002D0001F920F920FB60F9211248F939F938091CC
:1002E0000201909103010196909303018093020112
:1002F000059721F410920301109202019F918F91B2
:100300000F900FBE0F901F9018951F920F920FB66F
:100310000F9211240F931F932F933F934F935F934B
:100320006F937F938F939F93AF93BF93CF93DF93FD
:10033000EF93FF9380910201909103018130910529
:1003400021F0029709F4C2C043C18091000190914D
:100350000101892B59F54B9929C080E00E945C006E
:10036000682F80E090E00E945F0681E00E945C00C0
:10037000682F81E090E00E945F0682E00E945C00AE
:10038000682F82E090E00E945F0683E00E945C009C
:10039000682F83E090E00E945F06809100019091B9
:1003A0000101019690930101809300018091000169
:1003B00090910101019759F54B9929C080E00E9465
:1003C0005C00682F84E090E00E945F0681E00E945C
:1003D0005C00682F85E090E00E945F0682E00E944A
:1003E0005C00682F86E090E00E945F0683E00E9438
:1003F0005C00682F87E090E00E945F06809100011A
:1004000090910101019690930101809300018091E8
:10041000000190910101029759F54B9929C080E0A4
:100420000E945C00682F88E090E00E945F0681E0F7
:100430000E945C00682F89E090E00E945F0682E0E5
:100440000E945C00682F8AE090E00E945F0683E0D3
:100450000E945C00682F8BE090E00E945F06809114
:100460000001909101010196909301018093000198
:100470008091000190910101039709F0A9C04B9967
:10048000A7C080E00E945C00682F8CE090E00E9492
:100490005F0681E00E945C00682F8DE090E00E9482
:1004A0005F0682E00E945C00682F8EE090E00E9470
:1004B0005F0683E00E945C00682F8FE090E00E945E
:1004C0005F06109201011092000182C04B9980C01A
:1004D00080E090E00E94570690E008E810E0F80104
:1004E0009183808381E090E00E94570690E0CAE803
:1004F000D0E09983888382E090E00E94570687BD10
:1005000083E090E00E94570688BD8FE39CE9019745
:10051000F1F700C0000084E090E00E94570690E0F0
:10052000F8019183808385E090E00E94570690E077
:100530009983888386E090E00E94570687BD87E014
:1005400090E00E94570688BD8FE39CE90197F1F780
:1005500000C0000088E090E00E94570690E0F8019B
:100560009183808389E090E00E94570690E0998310
:1005700088838AE090E00E94570687BD8BE090E078
:100580000E94570688BD8FE39CE90197F1F700C0F0
:1005900000008CE090E00E94570690E0F801918303
:1005A00080838DE090E00E94570690E099838883D5
:1005B0008EE090E00E94570687BD8FE090E00E9499
:1005C000570688BD8FE39CE90197F1F700C0000052
:1005D000FF91EF91DF91CF91BF91AF919F918F915B
:1005E0007F916F915F914F913F912F911F910F914B
:1005F0000F900FBE0F901F90189584B1866084B93C
:1006000010928500109284008FE39CE990938700FC
:1006100080938600E0E8F0E080EA80838081826059
:100620008083E1E8F0E088E18083808182608083DC
:1006300008958AB180668AB984B5836084BD84B523
:10064000806884BD84B5806284BD85B5856085BDC4
:1006500008954F925F926F927F92AF92BF92CF9226
:10066000DF92EF92FF920F931F93CF93DF93CDB75B
:10067000DEB728970FB6F894DEBF0FBECDBF2901B5
:100680003A01ED82FE820F8318870E944E0469832F
:100690007A838B839C83A6019501698D7A8D8B8DDE
:1006A0009C8D0E944E049B01AC0169817A818B81F3
:1006B0009C810E94EA0569837A838B839C83A301D2
:1006C0009201C801B7010E944E049B01AC016981EF
:1006D0007A818B819C810E94BB049B01AC01C60185
:1006E000B5010E944F0428960FB6F894DEBF0FBEE6
:1006F000CDBFDF91CF911F910F91FF90EF90DF90D1
:10070000CF90BF90AF907F906F905F904F90089583
:10071000AF92BF92CF92DF92EF92FF920F931F930F
:1007200024E42F932AEF2F931F921F920F2EA12CB8
:10073000B12CFAE7CF2EF4E4DF2EF02DE12C10ECF3
:10074000F12E0FE714E420E030E0A9010E94290314
:100750000F900F900F900F900E942D0570938900BD
:10076000609388001F910F91FF90EF90DF90CF90E2
:10077000BF90AF900895AF92BF92CF92DF92EF9269
:10078000FF920F931F9325E42F932AE72F931F9235
:100790001F920F2EA12CB12CFFE2CF2EF5E4DF2EFD
:1007A000F02DE12C10ECF12E0FE714E420E030E006
:1007B000A9010E9429030F900F900F900F900E94A3
:1007C0002D0570938B0060938A001F910F91FF900D
:1007D000EF90DF90CF90BF90AF900895AF92BF920F
:1007E000CF92DF92EF92FF920F931F9322E42F9309
:1007F00028E42F931F921F920F2EA12CB12CF0EC06
:10080000CF2EF0E4DF2EF02DE12C10ECF12E0FE7CF
:1008100014E420E030E0A9010E9429030F900F901A
:100820000F900F900E942D0567BD1F910F91FF90B3
:10083000EF90DF90CF90BF90AF900895AF92BF92AE
:10084000CF92DF92EF92FF920F931F9322E42F93A8
:1008500028E42F931F921F920F2EA12CB12CF0EFA2
:10086000CF2EF1E4DF2EF02DE12C10ECF12E0FE76E
:1008700014E420E030E0A9010E9429030F900F90BA
:100880000F900F900E942D0568BD1F910F91FF9052
:10089000EF90DF90CF90BF90AF9008955058BB2756
:1008A000AA270E9466040C94B0050E94A20538F0A5
:1008B0000E94A90520F039F49F3F19F426F40C9406
:1008C0009F050EF4E095E7FB0C949905E92F0E9433
:1008D000C10558F3BA17620773078407950720F01C
:1008E00079F4A6F50C94E3050EF4E0950B2EBA2FDF
:1008F000A02D0B01B90190010C01CA01A001112426
:10090000FF27591B99F0593F50F4503E68F11A16D1
:10091000F040A22F232F342F4427585FF3CF469562
:1009200037952795A795F0405395C9F77EF41F1684
:10093000BA0B620B730B840BBAF09150A1F0FF0F4E
:10094000BB1F661F771F881FC2F70EC0BA0F621F3A
:10095000731F841F48F4879577956795B795F7952A
:100960009E3F08F0B0CF9395880F08F09927EE0FBF
:100970009795879508950E94CF040C94B0050E9426
:10098000A90558F00E94A20540F029F45F3F29F024
:100990000C94990551110C94E4050C949F050E9448
:1009A000C10568F39923B1F3552391F3951B550BBA
:1009B000BB27AA2762177307840738F09F5F5F4F32
:1009C000220F331F441FAA1FA9F335D00E2E3AF071
:1009D000E0E832D091505040E695001CCAF72BD089
:1009E000FE2F29D0660F771F881FBB1F26173707DA
:1009F0004807AB07B0E809F0BB0B802DBF01FF270C
:100A000093585F4F3AF09E3F510578F00C9499054A
:100A10000C94E4055F3FE4F3983ED4F38695779514
:100A20006795B795F7959F5FC9F7880F911D9695C4
:100A3000879597F90895E1E0660F771F881FBB1F20
:100A4000621773078407BA0720F0621B730B840BCD
:100A5000BA0BEE1F88F7E09508950E94C90588F04B
:100A60009F5798F0B92F9927B751B0F0E1F0660F72
:100A7000771F881F991F1AF0BA95C9F714C0B130B3
:100A800091F00E94E305B1E008950C94E305672F0F
:100A9000782F8827B85F39F0B93FCCF386957795E2
:100AA0006795B395D9F73EF49095809570956195CB
:100AB0007F4F8F4F9F4F0895E89409C097FB3EF4F6
:100AC00090958095709561957F4F8F4F9F4F99239B
:100AD000A9F0F92F96E9BB279395F6958795779519
:100AE0006795B795F111F8CFFAF4BB0F11F460FFD9
:100AF0001BC06F5F7F4F8F4F9F4F16C0882311F031
:100B000096E911C0772321F09EE8872F762F05C044
:100B1000662371F096E8862F70E060E02AF09A95DF
:100B2000660F771F881FDAF7880F9695879597F9D4
:100B3000089597F99F6780E870E060E008959FEF5F
:100B400080EC089500240A94161617061806090664
:100B5000089500240A941216130614060506089533
:100B6000092E0394000C11F4882352F0BB0F40F4BB
:100B7000BF2B11F460FF04C06F5F7F4F8F4F9F4FFB
:100B8000089557FD9058440F551F59F05F3F71F07D
:100B90004795880F97FB991F61F09F3F79F08795E4
:100BA0000895121613061406551FF2CF4695F1DF6D
:100BB00008C0161617061806991FF1CF86957105FD
:100BC000610508940895E894BB2766277727CB0131
:100BD00097F908950E94FD050C94B0050E94A205A6
:100BE00038F00E94A90520F0952311F00C94990586
:100BF0000C949F0511240C94E4050E94C10570F328
:100C0000959FC1F3950F50E0551F629FF001729FB1
:100C1000BB27F00DB11D639FAA27F00DB11DAA1FC0
:100C2000649F6627B00DA11D661F829F2227B00D0D
:100C3000A11D621F739FB00DA11D621F839FA00D98
:100C4000611D221F749F3327A00D611D231F849FE8
:100C5000600D211D822F762F6A2F11249F5750403F
:100C60009AF0F1F088234AF0EE0FFF1FBB1F661FBA
:100C7000771F881F91505040A9F79E3F510580F083
:100C80000C9499050C94E4055F3FE4F3983ED4F38B
:100C9000869577956795B795F795E7959F5FC1F727
:100CA000FE2B880F911D9695879597F90895F999D0
:100CB000FECF92BD81BDF89A992780B50895262F61
:100CC000F999FECF1FBA92BD81BD20BD0FB6F89431
:0E0CD000FA9AF99A0FBE01960895F894FFCF94
:00000001FF
